{
  "contractName": "Box",
  "abi": [
    {
      "anonymous": false,
      "inputs": [
        {
          "indexed": false,
          "internalType": "string",
          "name": "newValue",
          "type": "string"
        }
      ],
      "name": "ValueChanged",
      "type": "event"
    },
    {
      "constant": false,
      "inputs": [
        {
          "internalType": "string",
          "name": "newValue",
          "type": "string"
        }
      ],
      "name": "update",
      "outputs": [],
      "payable": false,
      "stateMutability": "nonpayable",
      "type": "function"
    },
    {
      "constant": true,
      "inputs": [],
      "name": "get",
      "outputs": [
        {
          "internalType": "string",
          "name": "",
          "type": "string"
        }
      ],
      "payable": false,
      "stateMutability": "view",
      "type": "function"
    }
  ],
  "bytecode": "0x608060405234801561001057600080fd5b506103ab806100206000396000f3fe608060405234801561001057600080fd5b50600436106100365760003560e01c80633d7403a31461003b5780636d4ce63c146100f6575b600080fd5b6100f46004803603602081101561005157600080fd5b810190808035906020019064010000000081111561006e57600080fd5b82018360208201111561008057600080fd5b803590602001918460018302840111640100000000831117156100a257600080fd5b91908080601f016020809104026020016040519081016040528093929190818152602001838380828437600081840152601f19601f820116905080830192505050505050509192919290505050610179565b005b6100fe61022f565b6040518080602001828103825283818151815260200191508051906020019080838360005b8381101561013e578082015181840152602081019050610123565b50505050905090810190601f16801561016b5780820380516001836020036101000a031916815260200191505b509250505060405180910390f35b806000908051906020019061018f9291906102d1565b507fce59a1f2cca0fa1bf7d80c74a303393cb56e768ec38427649054a68be65e11d7816040518080602001828103825283818151815260200191508051906020019080838360005b838110156101f25780820151818401526020810190506101d7565b50505050905090810190601f16801561021f5780820380516001836020036101000a031916815260200191505b509250505060405180910390a150565b606060008054600181600116156101000203166002900480601f0160208091040260200160405190810160405280929190818152602001828054600181600116156101000203166002900480156102c75780601f1061029c576101008083540402835291602001916102c7565b820191906000526020600020905b8154815290600101906020018083116102aa57829003601f168201915b5050505050905090565b828054600181600116156101000203166002900490600052602060002090601f016020900481019282601f1061031257805160ff1916838001178555610340565b82800160010185558215610340579182015b8281111561033f578251825591602001919060010190610324565b5b50905061034d9190610351565b5090565b61037391905b8082111561036f576000816000905550600101610357565b5090565b9056fea265627a7a723158204ac0f17f588eda255077ee5a9ab32c94f9485f06d29456c520011da7d53606de64736f6c63430005100032",
  "source": "// SPDX-License-Identifier: MIT\npragma solidity >=0.4.21 <0.7.0;\n\ncontract Box {\n    string private value;\n\n    // Emitted when the stored value changes\n    event ValueChanged(string newValue);\n\n    // Stores a new value in the contract\n    function update(string memory newValue) public {\n        value = newValue;\n        emit ValueChanged(newValue);\n    }\n\n    // Reads the last stored value\n    function get() public view returns (string memory) {\n        return value;\n    }\n}",
  "sourcePath": "/usr/src/app/contracts/Box.sol",
  "compiler": {
    "name": "solc",
    "version": "0.5.16+commit.9c3226ce.Emscripten.clang"
  },
  "schemaVersion": "3.4.1",
  "updatedAt": "2021-05-31T12:59:45.493Z",
  "networkType": "ethereum",
  "devdoc": {
    "methods": {}
  },
  "userdoc": {
    "methods": {}
  }
}